:100000000C94F1010C940E020C940E020C940E024E
:100010000C940E020C940E020C940E020C940E0220
:100020000C940E020C940E020C940E020C940E0210
:100030000C940E020C940E020C940E020C940E0200
:100040000C940E020C940E020C940E020C940E02F0
:100050000C940E020C940E020C940E020C940E02E0
:100060000C940E020C940E020C940E020C940E02D0
:100070000C940E020C940E020C940E02000B09213B
:100080005F3B00010004000B0010001A0021002259
:1000900000250028002D003400360039003A003FCA
:1000A00000440049004E00530059005E00630068A0
:1000B000006D007200730075007B00820088008C68
:1000C0000094009A00A000A700AE00B300B800BFE3
:1000D00000C500C800CC00D200D700DE00E400EB71
:1000E00000F000F700FD0103010A01100116011FD5
:1000F0000125012C01320135013A013D0144014B3A
:10010000014D01520157015C01610166016A016FF5
:10011000017401750178017D017E0187018C0191D7
:100120000196019B019F01A301A701AC01B101B898
:1001300001BD01C201C601CB01CC01D101D801D85A
:10014000500400004C2000020000000000000000ED
:10015000000000000000000000000000000000009F
:100160000000000000003C380010200080C109841D
:100170000000000000000000007C00D14462185222
:10018000A80002E239C17CDF73800000E3E33C3D5C
:10019000F3FF3D0F78618F139E39E3DFE186230C77
:1001A0001FE408800820008101008400000000088E
:1001B000000000009200D14F9224527080051E462C
:1001C0002341018C400000141322430A10430A18F3
:1001D000A18F14514514222186230A206209400070
:1001E000200081010084000000000800000000924F
:1001F0000087F4942421A8800512042542028C680B
:10020000603019D4A2810610810A192156983183D1
:1002100014022185549140A20A2003BCE7BBDFEB06
:100220008FDDE779F6FF18C98C7C920082946419FF
:10023000212080091208C97BC274699FCC2A54BE50
:100240008107FE81FA1A21569831831302214954FD
:100250006081210C10006318C52319962318C63934
:100260000918C952849231828E09A52107F3891297
:10027000103106248BC600034A54A18106108F0A50
:100280001E2126583E83E0C2214954608221080085
:1002900003E308FD2319A62318C631891555228BBF
:1002A00011C98FC50A622100801112203F8624885F
:1002B000419FCC4A5FE1810610830A1921265830FC
:1002C0008320222149549084208800046308C1239C
:1002D00019E62318C6306915552290924605051275
:1002E0006321008451124221462888A8603009A861
:1002F00061430A10430A18A10634504514222130E4
:10030000890888208800046318C52319962318C615
:100310003029122251209200851E119C9200846087
:10032000EFFDC139C87328000044087E3DF3F03D5D
:100330000FE87F063390390BC21E3089088FE048E2
:100340000003FCE7B91F198E231779F1C6F2228941
:100350003C92000004000012000420000000000095
:100360000008000003C000000000000000000000C2
:10037000000800000000000000204800000000000D
:100380000201000000402000000001009200000473
:1003900000000C0008000000000000001000000039
:1003A0000000000000000000000000000600000047
:1003B0000000000038380FE00000001C06000000BC
:1003C000402000000002007C004142434445464773
:1003D00048494A0048656C6C6F20576F726C642105
:1003E000000011241FBECFEFD0E1DEBFCDBF11E072
:1003F000A0E0B1E0ECEDFDE002C005900D92A83860
:10040000B107D9F721E0A8E8B1E001C01D92AE38EC
:10041000B207E1F70E94DD050C94EC060C94000095
:100420004F925F926F927F928F929F92AF92BF9204
:10043000CF92DF92EF92FF920F931F93CF93DF93B0
:1004400000D000D0CDB7DEB7DC01CB0129013A01E5
:10045000E982FA820B831C83950149815A81B2019A
:100460000E945E050E948A0590928D0180928C0107
:1004700021E8A216B104C104D10450F109811A8106
:100480001695102F00271795079525013601C801ED
:100490000E94910530E8431A51086108710881E80B
:1004A000481651046104710490F7D601C5018158C2
:1004B0009109A109B1098078B601A50140585109F7
:1004C000610971095A016B01A81AB90ACA0ADB0A43
:1004D00029813A81A29EC001A39E900DB29E900DEB
:1004E00011240E9491050F900F900F900F90DF91B3
:1004F000CF911F910F91FF90EF90DF90CF90BF9021
:10050000AF909F908F907F906F905F904F900895E5
:100510002F923F924F925F926F927F928F929F9213
:10052000AF92BF92CF92DF92EF92FF920F931F9301
:10053000CF93DF93CDB7DEB727970FB6F894DEBF22
:100540000FBECDBF4C017A8369834032510539F427
:10055000EDE7F0E0A490A694A694B12CCEC0EFE70E
:10056000F0E0E4914E1B51090AF4C2C080E890E02B
:10057000FC01249130E0421753070CF0BCC09A01F3
:100580002D5F3F4F220F331FF901E458FF4F649155
:10059000F901E358FF4FE491B62EA12CAE2AEDE706
:1005A000F0E024901416150674F4F901E658FF4F94
:1005B0004491F901E558FF4F5491342F20E0252B49
:1005C000A21AB30A02C020E030E0FC01849190E05E
:1005D000039682959295907F9827807F9827280F81
:1005E000391FC9018770992740E850E0BA0102C05D
:1005F000759567958A95E2F7C901959587959595C3
:10060000879595958795E1E8F0E0E4912A0D3B1DEB
:1006100035952795359527953595279520953095CE
:10062000280F391FD901AE0FB11DBC83AB83222027
:1006300009F463C0E12CF12C5A2C6D836894442496
:1006400047F8312CFC018F010F5F1F4FE458FF4F1B
:100650006490552009F441C07D801F821E82C980AC
:10066000DA80CE0CDF1C872D8621D9F021E030E026
:1006700041E050E0B6018E819F81880D991D0E9456
:100680005E050E948A052E813F8130938B01209365
:100690008A01F0928901E092880182E090E00E9454
:1006A0009105769499F4F801E458FF4F0F5F1F4FBE
:1006B000649061100AC0C5016E817F81861B970B13
:1006C00009975CF0742C632C01C0742C8E819F817F
:1006D00001969F838E83851530F2EB81FC81E00FBC
:1006E000F11F9FEFE91AF90AE21408F4ACCF05C034
:1006F000A12CB12C02C0A12CB12C8A2D9B2D2796A8
:100700000FB6F894DEBF0FBECDBFDF91CF911F9122
:100710000F91FF90EF90DF90CF90BF90AF909F90A0
:100720008F907F906F905F904F903F902F900895A3
:10073000AF92BF92CF92DF92EF92FF920F931F93EF
:10074000CF93DF93A82EB92E6B018A01790120E4A3
:1007500031E040EF50E060E070E080E090E00E9427
:100760005E050E948A052FEF3FEF309389012093A9
:10077000880130938B0120938A011C141D0484F49A
:10078000CA2DDB2DCC0EDD1E499150E0B701C8010A
:100790000E9488020196080F191FCC15DD05A1F7EC
:1007A000DF91CF911F910F91FF90EF90DF90CF904D
:1007B000BF90AF900895CF92DF92EF92FF920F9388
:1007C0001F93CF93DF93EC016B018A01790120E441
:1007D00031E040EF50E060E070E080E090E00E94A7
:1007E0005E050E948A058FEF9FEF909389018093A9
:1007F000880190938B0180938A011C141D0484F45A
:10080000CC0EDD1EFE012196449150E0B701C801D7
:100810000E9488020196080F191FCC15DD0591F77B
:10082000DF91CF911F910F91FF90EF90DF90CF90CC
:1008300008952FE789EA93E0215080409040E1F746
:1008400000C0000008958FE781B988E782B98FEF73
:1008500087B912980E941904129A0E9419041498D8
:1008600088E288B91398139A149A149881E188B988
:100870001398139A149A2FE782E392E02150804054
:100880009040E1F700C0000014988BEC88B91398F1
:10089000139A149A81E088B91398139A149880ECEB
:1008A00088B91398139A149A86E288B91398139A00
:1008B00088E088B91398139A149881EC88B9139832
:1008C000139A149A80E188B91398139A149885ECB6
:1008D00088B91398139A149A85E388B91398139AD0
:1008E0008EE388B91398139A149886E388B91398FD
:1008F000139A149A88E488B91398139A149880EB81
:1009000088B91398139A149A8AE488B91398139A99
:10091000149881EB88B91398139A149A18B81398FD
:10092000139A8BE188B91398139A149886EB88B9B7
:100930001398139A149AEEE2F1E0819188B9139812
:10094000139A21E0E233F207C1F7149887EC88B9D3
:100950001398139A149A85EB88B91398139A1498DC
:1009600086EF88B91398139A149AEAE2F1E081911C
:1009700088B91398139A81E0ED32F807C1F71498FB
:1009800082EF88B91398139A149A18B81398139A87
:10099000149886E288B91398139A149A81E088B95A
:1009A0001398139A14988AE388B91398139A149A8F
:1009B00085E588B91398139A149880EE88B913982E
:1009C000139A149AEAE1F1E0819188B91398139A85
:1009D00091E0E932F907C1F7149881EE88B91398CC
:1009E000139A149AEAE0F1E0819188B91398139A66
:1009F00021E0E931F207C1F714988AE288B9139827
:100A0000139A149AE5E0F1E0819188B91398139A4A
:100A100081E0E930F807C1F714988BE288B91398A0
:100A2000139A149AE0E0F1E0819188B91398139A2F
:100A300091E0E430F907C1F7149884E388B913987A
:100A4000139A149A149884EB88B91398139A149AE9
:100A500018B81398139A149887EB88B91398139AB7
:100A6000149A87E088B91398139A14988CE288B97D
:100A70001398139A149A20EF30E040E451E00BC031
:100A800018B81398139A18B81398139A0197C1F7C6
:100A90002150310911F0CA01F3CF149889E288B9C5
:100AA0001398139A149A2FEB84ED91E02150804013
:100AB0009040E1F700C00000119A08951498EAE20E
:100AC000E8B91398139A149A98B91398139A88B995
:100AD0001398139A0197840F951F98B91398139A36
:100AE00088B91398139A14988BE288B91398139ABB
:100AF000149A78B91398139A68B91398139A615095
:100B00007109620F731F78B91398139A68B9139813
:100B1000139A089514988CE288B91398139A149A2A
:100B200008952FEF27B920918D0130918C01482F26
:100B3000477041F028B91398139A38B91398139A4B
:100B40004150C1F796958795969587959695879587
:100B5000009791F128B91398139A38B91398139AFA
:100B600028B91398139A38B91398139A28B9139877
:100B7000139A38B91398139A28B91398139A38B955
:100B80001398139A28B91398139A38B91398139A8B
:100B900028B91398139A38B91398139A28B9139847
:100BA000139A38B91398139A28B91398139A38B925
:100BB0001398139A019771F60895279A0E942304B7
:100BC00020E530E040E550E060E070E080E090E05B
:100BD0000E945E050E948A0520E030E00DC018B832
:100BE0001398139A48B91398139A0197C1F72F5F76
:100BF0003F4F20343105A1F0C90196958795482FC4
:100C00004F7180E590E0EBCF18B81398139A48B96C
:100C10001398139A0197C1F72150310921F406C0A6
:100C200020E130E04FE180E590E0EECF20E530E0DC
:100C300040E550E060E070E080E590E00E945E05F5
:100C40000E948A0520E030E00DC058B91398139A2D
:100C500048B91398139A0197C1F72F5F3F4F20347B
:100C60003105E1F0C901880F991F82959295907F17
:100C70009827807F9827807E9770592F482F80E58E
:100C800090E0E3CF58B91398139A48B91398139A80
:100C90000197C1F72150310929F407C020E130E064
:100CA00057E040EE80E590E0EDCF20E530E040E514
:100CB00050E060E070E080EA90E00E945E050E94F3
:100CC0008A0520E030E00DC048B91398139A18B88F
:100CD0001398139A0197C1F72F5F3F4F20343105C6
:100CE000B9F0C901982F8827990F990F8827987F05
:100CF000492F80E590E0E8CF48B91398139A18B8C7
:100D00001398139A0197C1F72150310921F406C0B5
:100D100020E130E048EF80E590E0EECF88248A942F
:100D2000982C0F2EF4E1AF2EB12CC12CD12CF02D2C
:100D300014E1E12EF12C00E010E024E630E040E088
:100D400050E064E170E080E090E00E9410028FEFDC
:100D50009FEF90938D0180938C0126E930E04AE06B
:100D600050E06AE270E083E391E00E9498032AEA8F
:100D700030E04AE050E060E270E08EE591E00E94F1
:100D8000980325EB30E04AE050E068E070E08FE740
:100D900091E00E94980328EC30E04AE050E06AE0DD
:100DA00070E089EC93E00E94DB0327ED30E04AE03D
:100DB00050E06CE070E084ED93E00E94DB0385B1CD
:100DC000805885B92FE78FE492E121508040904010
:0C0DD000E1F700C00000F3CFF894FFCF63
:100DDC000000013F00000000EF000025270510096E
:100DEC003A784D05180D383A1F001F1A180A0F06CD
:100DFC004587320A070207050000010000000A823D
:100E0C002700006120717569636B2062726F776EC9
:100E1C0020666F78206A756D7073206F766572200E
:100E2C00746865206C617A7920646F672E004120AC
:100E3C00515549434B2042524F574E20464F582054
:100E4C004A554D5053204F56455220544845004C5E
:080E5C00415A5920444F4700A0
:00000001FF
