:100000000C943E000C945B000C945B000C945B0021
:100010000C945B000C945B000C945B000C945B00F4
:100020000C945B000C945B000C945B000C945B00E4
:100030000C945B000C945B000C945B000C945B00D4
:100040000C945B000C945B000C945B000C945B00C4
:100050000C945B000C945B000C945B000C945B00B4
:100060000C945B000C945B000C945B000C945B00A4
:100070000C945B000C945B000C945B0011241FBE7D
:10008000CFEFD0E1DEBFCDBF11E0A0E0B1E0E0E511
:10009000F5E002C005900D92A433B107D9F721E035
:1000A000A4E3B1E001C01D92A633B207E1F70E94BC
:1000B00084020C94A6020C9400002FE789EA93E0D6
:1000C000215080409040E1F700C0000008958FE784
:1000D00087B988E788B98FEF81B942980E945D009F
:1000E000429A0E945D00449888E282B94398439AFC
:1000F000449A449881E182B94398439A449A2FE7FD
:1001000082E392E0215080409040E1F700C000007F
:1001100044988BEC82B94398439A449A81E082B91F
:100120004398439A449880EC82B94398439A449AFE
:1001300086E282B94398439A88E082B94398439A09
:10014000449881EC82B94398439A449A80E182B9F9
:100150004398439A449885EC82B94398439A449AC9
:1001600085E382B94398439A8EE382B94398439AD0
:10017000449886E382B94398439A449A88E482B9C2
:100180004398439A449880EB82B94398439A449A9F
:100190008AE482B94398439A449881EB82B94398A0
:1001A000439A449A12B84398439A8BE182B9439890
:1001B000439A449886EB82B94398439A449AEEE274
:1001C000F1E0819182B94398439A21E0E233F2074A
:1001D000C1F7449887EC82B94398439A449A85EBD7
:1001E00082B94398439A449886EF82B94398439AD8
:1001F000449AEAE2F1E0819182B94398439A81E01E
:10020000ED32F807C1F7449882EF82B94398439AD8
:10021000449A12B84398439A449886E282B9439824
:10022000439A449A81E082B94398439A44988AE376
:1002300082B94398439A449A85E582B94398439A90
:10024000449880EE82B94398439A449AEAE1F1E0F7
:10025000819182B94398439A91E0E932F907C1F755
:10026000449881EE82B94398439A449AEAE0F1E0D7
:10027000819182B94398439A21E0E931F207C1F7AD
:1002800044988AE282B94398439A449AE5E0F1E0BF
:10029000819182B94398439A81E0E930F807C1F728
:1002A00044988BE282B94398439A449AE0E0F1E0A3
:1002B000819182B94398439A91E0E430F907C1F7FC
:1002C000449884E382B94398439A449A449884EBCF
:1002D00082B94398439A449A12B84398439A4498EF
:1002E00087EB82B94398439A449A87E082B943984E
:1002F000439A44988CE282B94398439A449A20EFF7
:1003000030E040E451E00BC012B84398439A12B871
:100310004398439A0197C1F72150310911F0CA015E
:10032000F3CF449889E282B94398439A449A2FEBD9
:1003300084ED91E0215080409040E1F700C0000042
:10034000419A08959093350180933401089544981B
:10035000EAE2E2B94398439A449A92B94398439A9D
:1003600082B94398439A0197840F951F92B9439895
:10037000439A82B94398439A44988BE282B943984E
:10038000439A449A72B94398439A62B94398439AFC
:1003900061507109620F731F72B94398439A62B931
:1003A0004398439A089520E431E040EF50E060E044
:1003B00070E080E090E00E94A701089544988CE2EC
:1003C00082B94398439A449A08952FEF21B9209116
:1003D000350130913401482F477041F022B94398DC
:1003E000439A32B94398439A4150C1F796958795FD
:1003F0009695879596958795009791F122B94398A0
:10040000439A32B94398439A22B94398439A32B9EE
:100410004398439A22B94398439A32B94398439AEE
:1004200022B94398439A32B94398439A22B94398E0
:10043000439A32B94398439A22B94398439A32B9BE
:100440004398439A22B94398439A32B94398439ABE
:1004500022B94398439A32B94398439A019771F667
:1004600008958F929F92AF92BF92CF92DF92EF92B8
:10047000FF920F931F93CF93DF93EC014B016A011F
:100480007901141615069CF51216130684F5590108
:100490000E94A701B401CE010E94DE01C8010E94A2
:1004A000A20181E8E816F104CCF086011695102F20
:1004B000002717950795E701C8010E94E501C0587C
:1004C000D109C138D105C4F780E8E81AF10881E8FC
:1004D000A81AB10880E8A822EA18FB08EC9CC00121
:1004E000ED9C900DFC9C900D11240E94E501DF9184
:1004F000CF911F910F91FF90EF90DF90CF90BF9021
:10050000AF909F908F900895279A0E9467000E9455
:10051000D30100913401109135010095109520E42C
:1005200031E040EF50E060E070E080E090E00E9459
:10053000310285B1805885B92FE78FE492E12150CF
:1005400080409040E1F700C00000E3CFF894FFCF77
:100550000000013F00000000EF0000252705100902
:100560003A784D05180D383A1F001F1A180A0F0661
:100570004587320A070207050000010000000A82D1
:040580002700000050
:00000001FF
